:020000040800F2
:10000000D007002065010008AD150008510C00085C
:1000100000000000000000000000000000000000E0
:10002000000000000000000000000000B51A0008F9
:10003000000000000000000059170008B71A00086F
:100040007701000800000000770100087701000830
:1000500077010008770100087701000877010008A0
:1000600000000000A3030008A503000877010008B2
:100070007701000877010008770100080000000000
:100080007701000800000000000000007701000870
:1000900000000000770100087701000877010008E0
:1000A0007701000877010008770100087701000850
:1000B00077010008000000000000000000000000C0
:1000C00000F002F800F03EF80CA030C80838241800
:1000D0002D18A246671EAB4654465D46AC4201D180
:1000E00000F030F87E460F3E0FCCB6460126334274
:1000F00000D0FB1AA246AB4633431847F41A00005F
:10010000141B0000103A02D378C878C1FAD85207FD
:1001100001D330C830C101D504680C6070470000BD
:100120000023002400250026103A01D378C1FBD813
:10013000520700D330C100D50B6070471FB51FBDFB
:1001400010B510BD00F0FAF81146FFF7F7FF01F007
:100150000FFD00F012F903B4FFF7F2FF03BC00F04B
:1001600019F900000748804707480047FEE7FEE707
:10017000FEE7FEE7FEE7FEE704480549054A064BB1
:1001800070470000291B0008C1000008D0010020B2
:10019000D0070020D0030020D003002001E004C0DD
:1001A000091F0429FBD28B0701D50280801CC907D7
:1001B00000D00270704700290BD0C30702D0027034
:1001C000401C491E022904D3830702D50280801CEB
:1001D000891EE3E70022EEE70022DFE700220309A1
:1001E0008B422CD3030A8B4211D300239C464EE052
:1001F00003460B433CD4002243088B4231D303090E
:100200008B421CD3030A8B4201D394463FE0C309BF
:100210008B4201D3CB01C01A524183098B4201D3D7
:100220008B01C01A524143098B4201D34B01C01AC2
:10023000524103098B4201D30B01C01A5241C3083A
:100240008B4201D3CB00C01A524183088B4201D3A9
:100250008B00C01A524143088B4201D34B00C01A95
:100260005241411A00D201465241104670475DE0AA
:10027000CA0F00D04942031000D34042534000222D
:100280009C4603098B422DD3030A8B4212D3FC22D6
:10029000890112BA030A8B420CD3890192118B4255
:1002A00008D3890192118B4204D389013AD092116B
:1002B00000E08909C3098B4201D3CB01C01A524126
:1002C00083098B4201D38B01C01A524143098B42EF
:1002D00001D34B01C01A524103098B4201D30B01D8
:1002E000C01A5241C3088B4201D3CB00C01A5241FD
:1002F00083088B4201D38B00C01A5241D9D24308E4
:100300008B4201D34B00C01A5241411A00D2014620
:10031000634652415B10104601D34042002B00D58A
:100320004942704763465B1000D3404201B500204C
:10033000C046C04602BD704770477047754600F022
:1003400025F8AE46050069465346C008C0008546FC
:1003500018B020B5FFF710FF60BC00274908B6466B
:100360000026C0C5C0C5C0C5C0C5C0C5C0C5C0C5C4
:10037000C0C5403D49008D46704710B50446C04693
:10038000C0462046FFF7E7FE10BD0000004870475A
:100390006C01002001491820ABBEFEE726000200D8
:1003A0007047704710B5034800F05AF8024800F053
:1003B00057F810BDB40000201001002010B504460D
:1003C000006C09498008800040186064207814217E
:1003D0000838FFF703FF04498031A164C106C90E44
:1003E00001208840E06410BD000802400179084BFC
:1003F0008906890E8A00D2180265054A4432491ED0
:1004000042658A07920F0121914081657047000083
:10041000FC080240F0B5846CC56C6560046D002C6E
:1004200002D0446D856D65600B4C6568066C1C27B9
:100430003E400127B7403D436560046863608368C0
:10044000102B036803D099600068C260F0BD9A6009
:100450000068C160F0BD00000000024072B6FEE717
:10046000F0B42C490C6802681368056C1C273D40E9
:100470000426AE40264211D05E070FD513689B06B6
:1004800003D4146804239C4314604B68046C042256
:100490003C40A24013434B60016B1CE00227AF407D
:1004A000064627402036002F19D09F0717D513681E
:1004B0009B0605D413680A24A343136001227271BA
:1004C0004B68046C1C2214400222A24013434B6070
:1004D00000213171C16A00291AD0F0BC08470827F1
:1004E000AF40274214D01B0712D513680E24A34334
:1004F00013604B68046C1C22144001221546A54071
:100500002B434B60C263727100213171416BE2E792
:10051000F0BC70470000024070B504003FD0254891
:10052000256814212818FFF759FE80002064022056
:1005300026462036707128681F4908402860E16807
:10054000A06862690843216911430843A16908430F
:10055000E1690843216A084321680A68104308607A
:100560002046FFF72BFF0121A06889030025884260
:1005700000D165602079616C8006800E0860A06CF7
:10058000E16C41606068401E03280AD82046FFF7EE
:100590002DFF206D0560606DA16D416004E00120BC
:1005A00070BD25656565A565E563012070713571D0
:1005B000002070BDF8FFFDBF0F80FFFFF8B50446B7
:1005C0008C4620300179002501290BD001260671C7
:1005D00041790027012907D08021E16307710125B6
:1005E0002846F8BD0220F8BD02214171E76320686A
:1005F000016849084900016061462046FFF70AFF8B
:10060000206B00282068016801D00E2205E004223A
:1006100091430160206801680A2211430160606C07
:100620000168CA03074902D502680A430260206DC7
:10063000002802D002680A43026020680168314342
:100640000160CDE700010000F0B5002303249AE02B
:100650002A4601259D402A407ED00E79B607B60F66
:10066000012E01D0022E16D186682746B4465E00C0
:10067000B646B7406646BE43B446CF687646B740F6
:100680006646374387604668AE430D79ED06ED0F49
:100690009D40354345600D79ED43AD0708D0C568F1
:1006A0005F002646BE40B5438E68BE402E43C660FE
:1006B0000D79AD07AD0F022D0ED1DD08AD002D185F
:1006C000AC462D6A5E07F60E0F27B740BD430F6993
:1006D000B7402F4365462F6205685F002646BE403F
:1006E000B5430E79B607B60FBE402E4306604D687F
:1006F000AD03AD0F46D09E08264DB6007519AC4629
:100700002D6E9E07F60E0F27B740BD4305273F0706
:10071000B84201D100270FE01F4FB84201D1012795
:100720000AE01E4FB84201D1022705E01C4FB84233
:1007300001D1032700E00527B7402F43154D66463A
:1007400037662D684E689543F60200D51543114F64
:100750003D607D68954300E014E04E68B60200D528
:1007600015437D600B4D80356E684F689643BF031F
:1007700000D516436E602E684F689643FF0300D580
:1007800016432E605B1C0A681546DA4000D05FE70E
:10079000F0BD0000001802400004005000080050A6
:1007A000000C0050014880687047000000000020E5
:1007B0000248816802788918816070470000002033
:1007C00010B5084800240168821511430160032018
:1007D00000F00AF8002801D0012401E000F028F818
:1007E000204610BD0020024070B50F4E0024317825
:1007F0000546002915D07D20C000FFF7EFFC01461B
:100800000A480068FFF7EAFC00F00AFA002808D15D
:10081000042D06D200222946401E00F02BF87560F8
:1008200000E00124204670BD000000200C000020E4
:1008300008B50948016801221143016000681040B1
:10084000009005484038C26B01040A43C263C06B84
:100850000840009008BD000040100240002805DB61
:10086000C106C90E01208840014908607047000098
:1008700000E100E010B501F059F910BD7047F8B57E
:1008800004000CD0606A002500280AD0256165614B
:1008900026464036A562707F002808D00BE0012074
:1008A000F8BD6168C81FFD38F2D0E561F0E7357723
:1008B000204600F05BF8022272772068016840232E
:1008C000994301600723E1681B02994201D9002086
:1008D00001E0012000030F273F02B94202D09942F4
:1008E00000D0A562FF236168053319402127A36862
:1008F000BF023B40194323691340227D1943D207AD
:10090000D20F11430123A2695B021A401143E2692D
:1009100038231A401143226A80231A401143A26AE5
:100920009B011A40114322681160A1690422090C3D
:100930001140626A10231A401143626B08231A4067
:1009400011430F23E2681B021A40114301221203D4
:1009500010400143206841602068C16952109143F2
:10096000C1612566012070770020F8BDF0B587B021
:10097000064614216846FFF72FFC35493068884247
:1009800064D13448C26B09140A43C263C26B0A4083
:100990000592416B022529434163406B00242840A6
:1009A00005902802009005202B4F04900294019599
:1009B000039469463846FFF747FE40200090042024
:1009C000049002940195039469463846FFF73CFE73
:1009D000FF2081300090012004900294019503943F
:1009E00069463846FFF730FE1D4D1C482860AC6054
:1009F0001220EC606860802047006F612861C000B1
:100A0000A86120202C62E8612846FFF785FD0028B8
:100A100001D0FFF723FDB5651048AE62114D1430CB
:100A20002860132068601020EC60A86080206F614F
:100A30002861EC61C0002C62A8612846FFF76CFDBC
:100A4000002801D0FFF70AFD7565AE6207B0F0BD62
:100A50000038004000100240000400501C0002401A
:100A6000B40000201001002070477047F8B505461B
:100A700004464035287F0026944601280CD00120EA
:100A80002877687F676801280CD0FA1FFD3A07D1E4
:100A9000A268002A04D101E00220F8BD042801D098
:100AA0000226A8E0002926D06046002823D0002B8B
:100AB00021D0687F042801D00520687700272766A9
:100AC000A163A387E38760462064AB80EB80E76483
:100AD0002765206841680322520391434160072241
:100AE0000120E16812020003914221684A6804D99A
:100AF00082434A602BE001267DE002434A60616D3B
:100B00008A69012189028A420BD1A18FCA07226812
:100B10003B49536833D00B435360E18F4908491C6C
:100B2000E187A16D8A69012189028A420FD121687A
:100B30004A6882434A60E888C107216831484A68A8
:100B400022D002434A60E8884008401CE880687F61
:100B500004281ED0A16D2C4808632C48A16DC862E2
:100B6000A16D2B484863A06D8763EB882168226CD8
:100B70000C31A06DFFF722FD002825D10EE08B433C
:100B80005360E18F4908CBE782434A60E888400818
:100B9000DCE7A16D1F4808631F48DFE72068416854
:100BA000012211434160606D0763606DC762606D33
:100BB0004763606D8763E38F2268A16B0C32606DC1
:100BC000FFF7FCFC002804D0206E102108432066AB
:100BD00091E720680168490603D401684022114367
:100BE000016020684168202211434160206841680B
:100BF000022211434160002028773046F8BD0000F2
:100C000000400000002000008717000801180008BD
:100C10005B1700087D1700089117000870477047A0
:100C2000094910B5401E884201D9012010BD074C6A
:100C300060610321081F00F079FF0020A0610720F8
:100C40002061002010BD0000FFFFFF0000E000E079
:100C5000FEE7000070B583680022DB07DB0F02D0DF
:100C60000122104670BD8C684B68C5682343CC6870
:100C7000054E35402C432343C360036909689B003C
:100C80009B080B430361ECE7C73FFFFFF0B5C26869
:100C900000230122C46852058468E407E40F02D0EF
:100CA00001231846F0BDC568104C154202D04D68AE
:100CB000F02D08D08E680D680F693543CE683E432D
:100CC00035434E6905E0CE680D684F6935430E69BE
:100CD0003E433543C66826403543C560C468144268
:100CE000DFD04968826A0A438262DAE73CC2FEFFCB
:100CF00010B5836AC906C90E0F248C409200120FEA
:100D0000A3438A401343836210BD436909028B43A6
:100D10001140490149090B434361704710B54369CC
:100D20000424214007248C40A3438A401343436199
:100D300010BDF0B500244CE00123A3401A4047D079
:100D40004B68012B01D0022B0FD18E6885681346AA
:100D500053435F00DF19BD4373431D438560CB6878
:100D60004568534395431D4345600F69C668134664
:100D700053435D005D19AE435F433E43C6604E681A
:100D8000022E1FD1FF2A0ED817464A69066A9446DA
:100D90001A467A437A431701BF1ABE4367467A431D
:100DA000164306620EE0160A324672434F697243DA
:100DB0007243BC461601B71A466ABE4367467A4379
:100DC000164346624A6806685343AE431E430660B4
:100DD000641C0A681346E340AED10020F0BD000059
:100DE00008B504494A6B02434A63496B01400091CC
:100DF00008BD000000100240014908607047000073
:100E00000C00002070B50268174B184D984201D0B5
:100E1000A84203D17024A2434C682243144E154CBF
:100E2000984208D0A84206D0134DA84203D0B04241
:100E300001D0A04204D103252D02AA43CD682A4344
:100E400002608A68C2620A888262984203D0B04215
:100E500001D0A04201D10969016341690122114316
:100E60004161002070BD0000002C014000040040E2
:100E7000004401400048014000200040012910D0FA
:100E8000042910D0102910D0402910D0CA1FF93AD7
:100E900005D00122920291420BD1052116E00421D6
:100EA00014E0002112E0012110E002210EE00321F4
:100EB0000CE001221203914201D1062106E0012239
:100EC0001204914201D1072100E00821064A18309E
:100ED000525C10180268044B09335B5C0421994092
:100EE0008A43026070470000DD1B0008012910D012
:100EF000042910D0102910D0402910D0CA1FF93A67
:100F000005D00122920291420BD1052116E0042165
:100F100014E0002112E0012110E002210EE0032183
:100F20000CE001221203914201D1062106E00122C8
:100F30001204914201D1072100E00821064A18302D
:100F4000525C10180268044B09335B5C082199401D
:100F50000A43026070470000DD1B0008F8B50D462B
:100F600001210C032F1B0023504EA54245D007DC66
:100F7000012D35D0102D37D0FF3D012D38D138E06F
:100F80000F2424033D1B67D02401A54230D1016A00
:100F900001252D05A9430162016A446D444F3C407F
:100FA00017683F023C436F00B943178A3F05394336
:100FB000A94395882D052943B04205D03D4DA8424F
:100FC00002D03D4DA84207D145680126B604B5437D
:100FD0009669B602354345604465D268C26561E0F2
:100FE000114600F0E5FA02E0114600F025FB01464B
:100FF0005AE0114600F068FBF9E7016A0124240376
:10100000A1430162016A4568C46903273F02BC43EA
:10101000274F3C4017683F023C4301277F03B943F9
:1010200017693F03394301273F03B94357683F031B
:101030003943B04205D01F4EB04202D01E4EB042DE
:1010400005D10126B603B5439669B601354345601F
:10105000C461D268026425E0016A01252D04A94318
:101060000162016A446D154F3C4017683C436F00B4
:10107000B943178A3F0439439788A9433F0439434A
:10108000B04205D00B4EB04202D00B4EB04205D15B
:101090004668AE4395692D022E4346604465D2688A
:1010A000846D8265016219460846F8BD002C014036
:1010B000FF8FFFFE00440140004801408FFFFEFF0C
:1010C000F0B591B000240C940D940E94182106A84C
:1010D0000F94FFF781F818216846FFF77DF89448D0
:1010E0000121026809050A43026000680840109067
:1010F0000120FFF775FE0120052703253F0700901B
:101100006946019504943846FFF713FE02200090CB
:101110006946019504943846FFF70BFE04200090C1
:101120006946019504943846FFF703FE2026694678
:101130003846009601950494FFF7FBFD7E4A7D48F2
:10114000136805219B099B010B4313607B490978B8
:1011500041587B4A1140794A12788150774982146C
:10116000097841582B0399431143744A12788150EE
:10117000724909784158714AB1431278314381501C
:101180006E4909784158402291436C4A1278815047
:101190006A4909784158802291431143674A12787D
:1011A000815066498215097841581B1199431143B2
:1011B000624A1278815061490615097841585F4AA0
:1011C0009F00B9431278314381500D940E940F94CF
:1011D00098055C4C0C900CA92046FFF73BFDE0689D
:1011E000F10288430843E06020688004C00FFBD010
:1011F00001256D0325601320800106900F20000655
:101200000790E80000210890032009910B910A90B3
:1012100006A92046FFF73AFD2069400840002061FA
:101220002069290488432061E068B8433043E060C6
:10123000002211462046FFF771FD00224249204658
:10124000FFF76CFD606804218843606060680821D6
:1012500088436060A0683D490840E9030843A060F6
:101260003C483B490068FEF7B9FF142148430A2176
:10127000FEF7B4FF00E0401E0028FCD1012200214F
:101280002046FFF735FD002201212046FFF73DFDF6
:10129000314E042132462046FFF72AFD20688004A3
:1012A000C00FFBD02560002231462046FFF72DFD00
:1012B0002A4E082132462046FFF71AFD2068800496
:1012C000C00FFBD02560002231462046FFF71DFDF0
:1012D00032460C212046FFF70BFD20688004C00F2A
:1012E000FBD02560002231462046FFF70EFD1C4E44
:1012F000102132462046FFF7FBFC20688004C00F17
:10130000FBD02560002231462046FFF7FEFC324626
:1013100014212046FFF7ECFC204601688904C90F20
:10132000FBD0056000223146FFF7EFFC11B0F0BDA5
:10133000401002400000024000080240D81B000894
:10134000EFBFFFFF0024014004FFFF07E8FFFF7F1E
:10135000400D03000C0000200200000404000008FF
:101360002000001408B50D480121826B0A438263F6
:10137000806B08400A4900900868FF2212029043DF
:1013800008600120074940020860002211460A2037
:10139000FFF770FA0A20FFF761FA08BD001002405B
:1013A00008E400E000E100E0F0B587B018216846ED
:1013B000FEF712FF0220FFF713FD0420FFF710FDD8
:1013C0000120FFF70DFD01212548890381628F115E
:1013D00005252D07AF624A11AA620201AA62002404
:1013E0000126009102940394019604946946FFF744
:1013F000A0FC082000900194694604942846FFF759
:1014000098FC102000900194694604942846FFF748
:1014100090FC029403946946284600970196049430
:10142000FFF787FC700200900294039469460196CE
:1014300004942846FFF77DFCF00300900294039487
:101440006946019604942846FFF773FC0820009033
:101450000194694604940348FFF76BFC07B0F0BDA4
:10146000000800500004005010B511480F490160F9
:10147000FF210531416000210F22816012020161CC
:10148000C2604161C16101220162920441628261D4
:1014900081620722C262016308214163FFF7EFF90D
:1014A000002801D072B6FEE710BD000000380040F1
:1014B00010000020F0B595B014216846FEF78CFEB0
:1014C00020210BA8FEF788FE182105A8FEF784FE50
:1014D00031480221C26B0A43C263C06B002408403A
:1014E0001390684604802D482D4D02900194694662
:1014F00003942846FFF786FC28688026B0432860BE
:10150000A86828490840A86001212846FFF7EEFC9A
:1015100060200B900C940D940E940BAA01210F9453
:101520002846FFF71BFD01212846FFF7A7FC1021E5
:101530002846FFF7DBFC0BAA10212846FFF70EFD1B
:1015400010212846FFF79AFC6868202170229043FA
:1015500008436860A868B043A8600220FFF740FC19
:101560000126102002250794089405A90A960994DB
:1015700021C10D4F08393846FFF7DBFB20200794C7
:10158000089405A90A96099421C138460839FFF73D
:10159000D0FB15B0F0BD000000100240FFFF0000BE
:1015A00000040040F8BFFEFF00040050FEE700000A
:1015B00030B5026A520852000262026A43688469C6
:1015C000194DA408A4002C400D682C430225AA4301
:1015D0000D692A4352084D6852002A43134DA84210
:1015E00005D0134DA84202D0124DA84214D10825AF
:1015F000AA434D69AD002A430425AA438D68AD0076
:101600002A43FF250135AB438D692B4301256D022C
:10161000AB43CD696D002B4343608461C96841636E
:101620000262002030BD00008FFFFEFF002C014051
:10163000004401400048014070B5026A1025AA43E9
:101640000262026A4368846903263602B4431A4E72
:1016500034400E68360234432026B2430E69360108
:101660003243AA434D682D012A43144DA84205D0A8
:10167000134DA84202D0134DA84215D18025AA438C
:101680004D69AD012A434025AA438D68AD012A4327
:101690000125AD02AB438D69AD002B430125ED0261
:1016A000AB43CD69ED002B4343608461C96881631E
:1016B0000262002070BD0000FF8FFFFE002C014081
:1016C000004401400048014070B5026AFF25013521
:1016D000AA430262026A4368C4691B4EA408A400BC
:1016E00034400E6834436E00B2430E693602324312
:1016F000AA434D682D022A43144DA84205D0144D2B
:10170000A84202D0134DA84217D10125ED02AA43E9
:101710004D69AD022A430125AD02AA438D68AD0291
:101720002A4301252D03AB438D692D012B43012550
:101730006D03AB43CD696D012B434360C461C96840
:10174000C1630262002070BD8FFFFEFF002C0140CC
:101750000044014000480140704710B5806A0168AC
:101760004A68920892004A60016E10221143016695
:1017700001225D210A54FFF781F810BD10B5806A7F
:10178000FFF773F910BD10B5806AFFF748FA10BD76
:1017900070B50546846AFFF705F8024628680068B8
:1017A000800629D4206841682025A9434160A068AB
:1017B000002803D16068C11FFD3918D02068416836
:1017C0004908490041606421204600F048F800289B
:1017D00000D02566002120464030C180012141779C
:1017E000206E002808D02046FFF748F870BD20681A
:1017F000416889088900E5E72046FFF735F970BDA3
:1018000070B50546846AFEF7CDFF02462868006879
:10181000800620D4206841682025A94341606421C6
:10182000204600F058F8002802D0206E2843206699
:10183000206841688908890041600021E1872046CD
:101840004030C18001214177206E002803D020461E
:10185000FFF714F870BD2046FFF7E0F970BDF7B54B
:1018600004464068FF26053682B01546B0420CD1CA
:101870000121A068C903884202D04911884204D1DD
:101880002068016840229143016000950022802178
:101890002046039B00F0B2F82027002813D160688F
:1018A000B04216D1A068B902884202D049118842DC
:1018B0000FD103210095002249022046039B00F02E
:1018C00031F8002805D0206E38432066032005B08B
:1018D000F0BD0020FBE7F8B50F460B461546009219
:1018E000032104460022C90200F01CF8202600282B
:1018F00012D13B46002280212046009500F07EF860
:10190000002809D103213B460022490220460095C8
:1019100000F008F8002803D0206E30432066032032
:10192000F8BD0000FFB585B00E46044600206946AC
:101930000E9D17460871FEF735FF411B0898451AA2
:10194000FEF730FF0390206823210C3002902A48D4
:1019500000684843000D684346E003204002864289
:1019600006D1002F04D102980178684601710079F0
:101970000898401C39D0FEF715FF0399401AA84279
:1019800005D2002D03D0009800282BD02BE0206832
:101990004168E022914341606068C11FFD390CD16C
:1019A0000121A068C903884202D04911884204D1AC
:1019B000206801684022914301600120A16A400330
:1019C000814207D121680A6882430A6021680A6857
:1019D00002430A6001204034607700202077032012
:1019E00009B0F0BD0025401E00902068806830409E
:1019F000B842B2D10020F3E70C000020FFB581B05F
:101A00001E4604460A9DFEF7CDFE401B351AFEF722
:101A1000C9FE0746264800684001000D684339E0CA
:101A2000701C38D0FEF7BEFEC01BA84205D2002DA8
:101A300003D0009800282BD02BE020684168E022DA
:101A4000914341606068C11FFD390CD10121A0683C
:101A5000C903884202D04911884204D12068016834
:101A60004022914301600120A16A4003814207D1D5
:101A700021680A6882430A6021680A6802430A6092
:101A800001204034607700202077032005B0F0BDAE
:101A90000025401E0090206881680298884305D088
:101AA000002103988142BBD10020EFE70121F8E734
:101AB0000C000020704710B5FEF77AFE10BD000044
:101AC00010B5174801688215114301600168490586
:101AD000C90FFBD003220168D2020723DB0299431E
:101AE0001143016081680F22120291438160816875
:101AF000C908C9008160382281681142FCD181681F
:101B000007221203914381600648FFF775F903200D
:101B1000FEF76AFE002801D072B6FEE710BD000095
:101B20000010024080841E00704700008307FF22DF
:101B3000DB0E9A408907090E9940002808DB8308CC
:101B400009489B001B1818689043084318607047A9
:101B50000007000F0838830804489B001B18D86949
:101B600090430843D861704700E400E000ED00E0D6
:101B7000FEF726FEFFF7A4FFFFF716FCFFF7F2FBC8
:101B8000FFF79EFAFFF770FCFFF794FC01200F4966
:101B90008003886140000521090788610C481021F5
:101BA0008162202181620B488921090101804180E5
:101BB000412109028180C18001810246014605233D
:101BC000203A8438FEF752FFFEE70000000800507C
:101BD0000004005094000020081C3044580000000D
:101BE000000404043C3C0000080000000800080059
:101BF000101C000800000020100000000401000874
:101C0000201C000810000020C00700002001000870
:101C10000100000004000000000000000024F400A7
:04000005080000C12E
:00000001FF
